:1000000047C1000062C1000060C100005EC1000085
:100010005CC100005AC1000058C1000056C1000078
:1000200054C1000052C100000C9494180C94601943
:100030000C9414144AC1000048C1000046C10000DD
:1000400044C1000042C1000040C100003EC10000A8
:100050003CC100000C948B1438C1000036C1000074
:1000600034C1000032C1000030C100002EC10000C8
:100070002CC100002AC1000028C1000026C10000D8
:1000800024C1000022C1000020C100001EC10000E8
:100090001CC100001AC1000018C1000016C10000F8
:1000A00014C1000012C1000010C1000029001E0090
:1000B0001F0020002100220023002400250026002C
:1000C00027002D002E002A00530054005500560032
:1000D0002B0014001A000800150017001C0018005F
:1000E0000C00120013002F00300031005F00600090
:1000F00061005700390004001600070009000A00DB
:100100000B000D000E000F0033003400280000002B
:100110005C005D005E000000E1001D001B000600A9
:100120001900050011001000360037003800E50006
:100130005200000059005A005B005800E000E30044
:10014000E200000000002C0000000000E600E700D4
:10015000E4005000510000004F0062006300000006
:1001600018034200610072007200610063007500B4
:100170006400610038003100000012034E00690085
:10018000630068006F006C006100730000000403EE
:10019000090409023B00020100A0FA090400000161
:1001A000030101000921110100012244000705811A
:1001B00003080001090401000103000000092111E6
:1001C000010001226D0007058203200001120100D9
:1001D0000200000008EDFE8100010001020001059F
:1001E000010980A101850319012AB700150126B76D
:1001F00000950175108100C0050C0901A10185045D
:1002000019012AA002150126A0029501751081008E
:10021000C005010906A1018506050719E029E715B2
:100220000025019508750181020507190029EF15C0
:1002300000250195F0750181020508190129059530
:100240000575019102950175039101C0050109062B
:10025000A101050719E029E7150025019508750199
:1002600081029501750881010507190029FF150014
:1002700026FF009506750881000508190129051556
:10028000002501950575019102950175039101C045
:1002900011241FBECFEFDAE0DEBFCDBF11E0A0E03A
:1002A000B1E0ECE5F7E302C005900D92A639B10785
:1002B000D9F722E0A6E9B1E001C01D92AC3EB20739
:1002C000E1F70E940B100C94791B9ACE811114C097
:1002D000653090F4423180F4E42FF0E082E1689FD1
:1002E000E00DF11D1124EE0FFF1FE455FF4F859126
:1002F0009591282F822F089521E090E0FBCFE6CF43
:10030000089581E0089581E00895FBCF089581E08C
:10031000089581E00895FDCF089508950895FDCFD3
:10032000089508950895A6E0B0E0E9E9F1E00C949D
:10033000091B49835A839E8330919D0189819A814B
:10034000311117C03E81311589F0211579F057D54B
:10035000182F682F89819A8131D569817A81812FFF
:100360000E94170D2696E3E00C94251B38D5182F14
:10037000F4CF45D569817A81F3CFFC01262F4081E6
:1003800051816281738184819581CDCFCF93DF9339
:10039000EC0161E0F2DFBE01B6DF811529F061E01A
:1003A000CE01EBDFBE01B1DFDF91CF9108950F9356
:1003B0001F93CF93DF93EC0160E0DFDF8C01BE0180
:1003C000ADDFBE01C801ABDFDF91CF911F910F916F
:1003D00008950F931F93CF93DF93EC0161E0CDDF7E
:1003E0008C01BE0194DF811106C080E0DF91CF91C6
:1003F0001F910F910895BE01C8018DDF8115A9F3EA
:10040000BE01C8010E947B11811579F3BE01C801AC
:100410000E944210811549F3BE01C8010E941B10C1
:10042000811519F3BE01C8010E941A0E8115E9F267
:10043000BE01C8010E942C0E8115B9F2BE01C8018F
:100440000E94460ED3CF21E030E002C0220F331FBE
:100450008A95E2F7C901EDC3CF93C82F81E090E000
:100460000C2E02C0880F991F0A94E2F70E941A0B03
:100470008C2FE9DFCF91089581E0089581E0089500
:10048000FBCF0895CF93C82F83D38C2FF7DF8C2F0A
:10049000F7DF8FEF94E32CE0815090402040E1F7AC
:1004A00000C00000CF91089581E0ECDF0C94AF1400
:1004B00080E0E8DF0C94C01434DF0E94941317C06E
:1004C00018D030DF0C94981381E008950895CF93ED
:1004D000DF93D82FF9DFC82F811511F08D2FF6DFAC
:1004E0008C2FDF91CF9108950895F1CF089580E08A
:1004F000FCCF0E94C911F9CFCF930E94C911C82F18
:10050000809198018C1771F0C09398010E947F141C
:100510006093990170939A0180939B0190939C0141
:100520008C2FE3DFCF910895ADE0B0E0EAE9F2E08F
:100530000C940A1B488759876A877B878C879D871D
:1005400091116BD71F8286E0FE0138969E012F5FC6
:100550003F4FD90101900D928A95E1F78D8181116C
:100560000CC029813A814B815C816D817E818F81B4
:100570009FD62D96E2E00C94261BCE01019606DF55
:100580008111EFCFF6CFFC012481213019F4808155
:10059000918168C40895CF93C82F8115B9F082382E
:1005A000B9F40E94D81181FD11C089E30E94F312B1
:1005B000BCD78FEF97EE23E0815090402040E1F7C9
:1005C00000C0000089E30E940A13AFD7CF910895BD
:1005D000833899F40E94D81180FDF8CF83E50E94FA
:1005E000F312A3D78FEF91EE24E08150904020408A
:1005F000E1F700C0000083E5E6CF843899F40E945B
:10060000D81182FDE3CF87E40E94F3128ED78FEFDB
:1006100091EE24E0815090402040E1F700C00000BE
:1006200087E4D1CF8450813A68F48C2F0E946D12F8
:10063000811521F08C2F0E940A1377D78C2F0E94EE
:10064000F312C3CF8C2F805E883048F481E0C1FD67
:1006500084E0C0FD880FC2FD8295C0D6B6CF8C2F36
:10066000855A833030F48C2F8452990B0E94F911F3
:10067000ADCFC85ACB3108F0A9CFEC2FF0E0EE0F88
:10068000FF1FEE5EFE4F808191810E9420129ECF5F
:10069000811509F447C0823861F40E94D81181FFA6
:1006A00041C089E30E94F31240D789E30E940A13F4
:1006B0003CC7833851F40E94D81180FF33C083E5D2
:1006C0000E94F31232D783E5F1CF843851F40E94AF
:1006D000D81182FF27C087E40E94F31226D787E44F
:1006E000E5CF982F9450913A08F3982F905E983068
:1006F00050F4982F81E091FD84E090FD880F92FDE9
:10070000829572D6D5CF982F955A933020F480E0F9
:1007100090E00C94F911885A8B3120F480E090E03D
:100720000C94201208951F93CF93DF93182FEB01A1
:1007300032DF209731F4812FABDFDF91CF911F9112
:1007400008958FE99FE00197F1F700C0000021971D
:10075000F0CF60E570E0893311F060E070E0E3CF46
:10076000811511F03BD6E1C60895811511F03CD6F4
:10077000DCC60895A0E0B0E0E0ECF3E00C94041BCC
:100780006C01D62FC72FFC011581068102950F70D1
:100790001AD6E82E8115E9F0E12E1115D1F08C2F33
:1007A000807F803461F08D2F805E883098F18C2FAF
:1007B000807E803221F4D23068F1011559F18091A8
:1007C000B20282FF27C082E0D3D6FDD591E089270F
:1007D000E82E9C2F92959F70983009F4CAC068F556
:1007E0009430D0F4923008F438C08C2F8F70F82EEB
:1007F000C07FC03219F0F29480EFF822D13008F4B3
:1008000056C009F47EC0111509F487C0011509F41A
:1008100067C036C0E12CDDCF09F48FC0E11409F4C4
:10082000D8C0CDD580FDD5C0F6011582C2D531D254
:10083000C60183D1BED53BD2CCC0993009F40BC1DF
:100840009A5F9F70923050F7D23F09F011C18C2F00
:100850008F7111110BC11DD2B9C00C2F0F70C03197
:1008600010F00295007F111581F0011549F08D2FD0
:10087000805E883010F0D11105C0802FAFD555D6DD
:100880008D2F21C0802FBBD5FACF8D2F01DF011511
:1008900009F4C4CF8D2F805E883010F0D11103C0D1
:1008A000802FA2D502C0802FB0D53FD6B7CF809180
:1008B000B20282FD11C0111541F0F11419F08F2D13
:1008C0008DD533D680E067DEA9CF80E0E1DEF1147C
:1008D00009F4A4CF8F2DE5CF111551F0013018F494
:1008E0008F2D3EDF9BCF09F099CF8F2DAAD596CFC4
:1008F000011194CF8F2D39DF8F2DAED58F2D93D54C
:100900008DCF111521F0063008F088CFE9CF0530E2
:1009100008F084CF8F2D29DF81CF0115D9F3D9338A
:1009200049F48FEF97EE23E0815090402040E1F7AB
:1009300000C000008D2FACDE71CF8C2F8695869580
:100940008370813060F009F069CF8D2F9C2F9370F8
:10095000111102C080E090E00E9420125FCF8D2F25
:100960009C2F9370111102C080E090E00E94F91159
:1009700055CF8C2F8370C1F5111128C04D2F429592
:1009800046954770440F440F2D2F2F7030E0042EF2
:1009900002C0220F331F0A94E2F780E090E0D4FFF8
:1009A00009C08FE090E002C0880F991F4A95E2F7D6
:1009B00080959095C695C695C370822B932BC230B7
:1009C00079F0C33079F0C13049F03CD10E94C911AF
:1009D0008CDDCDB7DEB7E8E00C94201B2CD1F6CF30
:1009E00038D1F4CF26D1F2CF111559F1C0FFEECF97
:1009F0004D2F429546954770440F440F2D2F2F7071
:100A000030E0042E02C0220F331F0A94E2F780E088
:100A100090E0D4FF09C08FE090E002C0880F991FDA
:100A20004A95E2F780959095C695C695C370822B3E
:100A3000932BC23061F0C33061F0C13031F05CD132
:100A4000C5CF823008F4C2CFD3CF4FD1BFCF5BD157
:100A5000BDCF0CD1BBCFCF70111529F08C2F19D180
:100A60008D2F7EDEB3CF8D2F80DE8C2F20D1AECFA9
:100A700058F4D03FB1F0D13F79F01115B9F101151B
:100A800091F18D2F88DDA2CFD33FB1F0D43FA9F7EC
:100A90008091B20282FD18C08C2F8F71111531F335
:100AA000DACE111539F0053008F090CF8C2F8F7108
:100AB0000ED18CCF0630F8CF111521F08C2F8F710D
:100AC000DFD084CFDAD082CF111529F063E08C2FEC
:100AD0008F7137D57BCF81E04BD5023008F476CFCC
:100AE00082E046D573CF8C2F8F71B5CE011571F092
:100AF000D93349F48FEF97EE23E0815090402040A6
:100B0000E1F700C000008D2FC3DD60CF8C2F8F7107
:100B1000ADCF0F931F93CF93DF93EC016881798161
:100B20008D81A9D18C01F6D083D0B801CE0122DE0F
:100B3000DF91CF911F910F910895CF93DF93EC0137
:100B40008C81811581F0CE0144DC81110FC03BD432
:100B5000811549F08D81811531F08091B20282FFBB
:100B600002C082E005D5DF91CF910895CE01D1DF9B
:100B7000CE011DDCF8CF80E090E00E94F91180E00A
:100B800090E00E94201249D4D0C40E942113F3CFD8
:100B900033D4FBCF282F92959F70963099F060F454
:100BA000925F9F70923030F4203FB1F038F481E0D2
:100BB000283E38F080E008959A5FF3CF81E0243F2B
:100BC000C9F7089591E0813F09F090E081E0283E67
:100BD00008F080E0892B089581E00895FC012481CC
:100BE000211521F0808191813DD1D4CF80E00895FD
:100BF000A6E0B0E0EEEFF5E00C940A1B2696E2E0EA
:100C00000C94261BA7E0B0E0E8E0F6E00C940A1B89
:100C10002796E2E00C94261B0895FECF0895FDCFA1
:100C20000895FADFFCDF8093D0019093D1010895FD
:100C30000895F7CF08952091D0013091D101822BF2
:100C4000932BEFCF2091D0013091D10182239323B8
:100C5000E8CF2091D0013091D10182279327E1CFB5
:100C6000DBCF0895FDCF0895D7CF0895FDDFFADFDC
:100C70008093CE019093CF01089580E090E0F6CF6D
:100C800021E030E002C0220F331F8A95E2F7C9014C
:100C9000EDCF21E030E002C0220F331F8A95E2F74A
:100CA0008091CE019091CF01822B932BDFCF21E059
:100CB00030E002C0220F331F8A95E2F7209530956D
:100CC0008091CE019091CF0182239323CFCF21E059
:100CD00030E002C0220F331F8A95E2F78091CE01E7
:100CE0009091CF0182279327C1CF2091CE013091DF
:100CF000CF01822B932BBACF2091CE013091CF011F
:100D000082239323B3CF2091CE013091CF0182274C
:100D10009327ACCF0895CF93C1E061FDC4E060FD9F
:100D2000CC0F62FDC29593E0769567959A95E1F7B1
:100D3000660F771F660F771F460F571FFA0140E0B7
:100D400050E090E06191DF019C01042E02C03695D5
:100D500027950A94E2F72695220B26272C2326278F
:100D60002E934F5F5F4F4430510561F7CF91089547
:100D7000A82FA77023E0969587952A95E1F7880F0D
:100D8000991F880F991F680F791FFB0140E050E001
:100D900080E0219130E00A2E02C0369527950A9412
:100DA000E2F72170042E01C0220F0A94EAF7822B89
:100DB0004F5F5F4F4430510561F70895262F9530FE
:100DC00068F4823158F4682F70E082E1989F600DDA
:100DD000711D11244EE951E0822F9DCF0895292FD6
:100DE000953058F4823148F490E06EE971E032E1D8
:100DF000239F800D911D1124BBCF80E00895CF92D9
:100E0000DF92FF920F931F93CF93DF936C010091BA
:100E1000CE011091CF018091D0019091D101082B8A
:100E2000192BCFE0D0E081E090E00C2E02C0880FBB
:100E3000991F0A94E2F780239123892B61F421976B
:100E400090F7F12C8F2DDF91CF911F910F91FF9093
:100E5000DF90CF900895FC2EB6018C2FF3D501972B
:100E600071F3F0CFCF93DF93EC01C9DFBE01EAD578
:100E7000DF91CF9108951F93CF93DF93EB01909172
:100E80009D01911531F0CB01EDDFDF91CF911F91E5
:100E90000895811551F0CB01B2DF182F682FCE01D4
:100EA0008DDFBE01812FCED5F0CFCB0198DF182F7B
:100EB000F8CF0F931F930091D2018091D30180133B
:100EC00003C01F910F91089587E0089FF00111243E
:100ED000EC52FE4F208131814281538164817581C2
:100EE000868190DE0F5F1F4F0770E7CF20910C02C5
:100EF00030910D0240910E0250910F02609110024C
:100F000070911102809112027DCE80911202803187
:100F100070F480911102811551F0E091D20120917D
:100F2000D30130910D0240910C022E1301C008959F
:100F3000BF0187E0E89FF0011124DF01AC52BE4FF2
:100F400014968C911497811549F111968C911197F3
:100F5000831324C08C91841321C015968C9115970E
:100F600081111CC012968D919D91A0910E02B0919D
:100F70000F028A1B9B0B883C910580F48091120222
:100F80008F70806180931202E652FE4F80818F70D5
:100F9000806180838CE092E0D0DD8BCF6F5F7F4FEC
:100FA000FB01E770C2CFE091D2019091D301E91328
:100FB00002C080E008959F0157E0E59FF0011124F1
:100FC000EC52FE4F5181561306C05081581303C096
:100FD0005581541305C02F5F3F4FF901E770E7CFEC
:100FE00081E008958F929F92AF92BF92DF92EF922D
:100FF000FF920F931F93CF93DF93CDB7DEB72D975B
:101000000FB6F894DEBF0FBECDBF8C0186E0F801AD
:10101000DE01189601900D928A95E1F7F801F580AE
:1010200084819CE0892E92E0992E9091100291117A
:1010300017C0811509F4EFC0F11409F42EC1C801DD
:10104000CDDD811509F429C187E0F801D4010190B3
:101050000D928A95E1F7C40196DA57DF47DFDBC0CE
:10106000E080A280B380D090110220910E023091D6
:101070000F02A501421B530BD11409F4CFC0483C09
:10108000510508F09EC0811509F4C5C090910D026C
:10109000918080911202803108F065C0991226C0BB
:1010A00090910C029E1122C0F11057C08F70806188
:1010B000809312021BDF8CE092E03FDD80911202F0
:1010C000F8018683F12C8F2D2D960FB6F894DEBF94
:1010D0000FBECDBFDF91CF911F910F91FF90EF9089
:1010E000DF90BF90AF909F908F900895F11035C022
:1010F00040E0692D8E2D57DF40E0692D8E2D53DFA6
:10110000F82E8111DFCF88859985ACDE292F2295B5
:101110002F70903450F49F70223078F0911591F038
:10112000F8019681903170F4CECF2A5F2F70223073
:1011300070F0C80102DDFD2CC6CF911519F08115A4
:1011400009F4C1CF805E883008F4BDCFF2CF803F74
:1011500008F4B9CF815F8330F7CF809112028160AC
:1011600080931202AFCF991207C090910C029E118A
:1011700003C0F11409F473C0C80130DD811509F40E
:101180008CC0F11409F489C080911202803280F081
:1011900020910C0230910D0229833A83AB82BC82EC
:1011A000909110029D831E828F83CE010196C5DC33
:1011B00087E0F801ACE0B2E001900D928A95E1F78A
:1011C0004CCF90911202903188F4488559856A85F8
:1011D0007B858C859D850CDD8CE092E0AEDCF40196
:1011E00087E011928A95E9F781DE6CCF811599F03D
:1011F00020910D0281812813BFCF80910C028E11A6
:10120000BBCFF110B9CF9683C80197DCF40187E01A
:1012100011928A95E9F7FF24F39455CF483C510584
:1012200008F03EC08115B9F3F114B9F190910D02A7
:101230008181981329C080910C028E1125C0809164
:10124000120280FD18C08031B0F08683807F803F1D
:1012500039F08681982F907F905F8F70892B8683DD
:10126000C8016BDC87E0F801ACE0B2E001900D92C0
:101270008A95E1F7F3CE87E0F801ACE0B2E00190A7
:101280000D928A95E1F7C7CFC801A8DC811190CFF4
:1012900080911202816080931202C8014EDCBBCFA4
:1012A000488559856A857B858C859D85A1DC97CF8E
:1012B000AEE0B0E0EEE5F9E00C94091B2887398731
:1012C0004A875B876C877D878E87CE0108968ADE8A
:1012D0006C85811599F0611539F0288539854A8525
:1012E0005B857D858E858EDC8091D2019091D301C6
:1012F00089133DC02E96E3E00C94251B87E09E01E8
:10130000285F3F4FF90127503109D90101900D9213
:101310008A95E1F7611541F3A091D3018A2F90E0FE
:101320008395877090E0AC012091D20124171506B7
:1013300091F097E09A9FD0011124AC52BE4F9E01CC
:101340002F5F3F4FF90101900D929A95E1F740937D
:10135000D301AFDDC9CF1CDC1092D3011092D201B2
:10136000ECE0F2E087E011928A95E9F7BDCF17E053
:10137000189FC00111248C529E4F34DE811509F450
:10138000B9CFE091D2011E9FF0011124EC52FE4F23
:10139000208131814281538164817581868132DC73
:1013A0008091D2019091D301019687708093D201F0
:1013B0009BCF80913B028695869586950895809176
:1013C0003B028770089590913B02977081E09111E4
:1013D00001C080E0089580916702089590916702AE
:1013E000982B9093670208958095982F80916702BB
:1013F000892380936702089510926702089590915F
:101400006602982B9093660208958095982F80919C
:1014100066028923809366020895109266020895F9
:101420000895FECF089590913C02292F282329F09A
:101430008095892380933C02F4CF08950895FECFD0
:10144000089590913D02292F2823281721F0982BE9
:1014500090933D02F4CF089590913D02292F2823C7
:1014600029F08095892380933D02E9CF08958091EA
:101470003D02811521F010923D0280E0E0CF0895F9
:10148000CF93C091670280916602C82B80913D0284
:10149000811521F0C82BFBD78111E9DF8C2FCF916B
:1014A0000895CF93DF93C0910201D0910301E8DF4B
:1014B0008883C0910201D091030148E050E063E3CA
:1014C00072E0CE010E94311B892B51F088E0FE01B1
:1014D000A3E3B2E001900D928A95E1F7CE016AD7BD
:1014E000DF91CF910895CF93DF93C0910001D09108
:1014F0000101C6DF8983C0910001D091010140E262
:1015000050E063E172E0CE010E94311B892B51F063
:1015100080E2FE01A3E1B2E001900D928A95E1F72D
:10152000CE0155D7DF91CF9108952CD7811529F0A1
:101530008091B10287FF01C0D6CFB3CF0895FECF0F
:1015400008959091B20292FF0EC0982F990F990FB3
:10155000990F962B90933B029CDB80913B028695E2
:1015600086958695ECCF95CB10923B0280E0E7CF35
:1015700090913B028095892380933B02282F27700E
:1015800059F4891749F09091B20292FF05C08695EF
:10159000869586958CDBE8CF08959091B20292FBF8
:1015A000222720F9281749F080FB92F99093B20284
:1015B00081EB92E043D082E0DBCF08958091B202CC
:1015C000002482FF0394802DE8CF81E0E6CF80E005
:1015D000E4CF80E090E0BC01C0C380E090E0BC01BB
:1015E000B6D3F7CFA3E0B0E0E8EFFAE00C940A1B23
:1015F00067D372D31B82CE01039685D381E090E03E
:101600008093D0011092D1018AD3198284E18A8318
:10161000CE01019695D3E1DF2396E2E00C94261BE0
:10162000E1CF08955FC308954CC3089561C3089541
:1016300070C3089574C3089577C3089581C308954E
:1016400092C30895A6E0B0E0E8E2FBE00C94081B2A
:101650000E9473148C018091680290916902801736
:10166000910779F019821A820E947314BC01498192
:101670005A8180E090E00E949402009368021093E7
:1016800069022696E4E00C94241B0E947F14609368
:101690006E0270936F028093700290937102609358
:1016A0006A0270936B0280936C0290936D020895AE
:1016B00008950895FDCF08950895FEDFFBCF0895A6
:1016C000FECF08950895FEDFFBCF88E19EE0AED403
:1016D000F0DFF3CF81E0089581E00895FBCF089516
:1016E000089508950895FCDFFCDFFCCF9DDF811194
:1016F00001C096DF82E792E099DF81EB92E09CDF08
:1017000097DF97DA8091CE019091CF01ABCA0E940A
:101710006A14FCD3EBDF34D60E947402D4CFA8E065
:10172000B0E0E5E9FBE00C94FA1AD6DF811108C0BD
:1017300089DF27D60E947C022896E2E10C94161BD2
:10174000F4D30DE912E06801F12CF601808091805C
:10175000A280B3808F2D12D3F3942F2D253009F45E
:101760006AC024E0C20ED11C86169706A806B906E8
:1017700061F38091720281FD0CD3B0DF8887312C38
:10178000832DFCD26B017C01F80141905190619056
:1017900071908F01C414D504E604F70409F444C021
:1017A00046265D2468267F24212CA12CB12C4501DE
:1017B0008394C201D30188219921AA21BB21892BBD
:1017C0008A2B8B2B21F181E08F83C601D7018821E1
:1017D0009921AA21BB21892B8A2B8B2B09F41F82EB
:1017E0008885811581F0622D832DC9D781110BC0A9
:1017F00029823A820E947314BC0149815A8181E096
:101800009F810E9494024F81622D832DD9D723940A
:10181000880C991CAA1CBB1C822D823151F6F80140
:10182000F292E292D292C2923394832D853009F0E3
:10183000A7CF2BDF7ECF86169706A806B90609F03C
:1018400098CF76CF0F931F93CF93DF93FDD0EC010A
:10185000D23508F050C0D03508F0C8C0C03ED10520
:1018600030F5CD3CD10508F09DC0C83AD10578F4DB
:10187000C53AD10508F093C0C130D105B1F1CE0110
:101880000497813A910588F1C0E0D0E02EC0CE01E6
:10189000885A91094B97C0F7C85AD0E0CC0FDD1F8A
:1018A000C85BDE4F0990D881C02DD4641EC0D034EF
:1018B000A8F4D03208F0ADC0C83ED105B0F0CE01DA
:1018C00091509F3108F78D2F62D1082F8C2F90E017
:1018D000BBD0D02FDF71C82FD92B07C08C2F90E041
:1018E000B3D0DF70C82FD92BD06ACE01DF91CF9152
:1018F0001F910F910895C03882E5D807B8F5C0361A
:1019000082E5D80708F056C0C03482E5D807C8F48D
:10191000C03282E5D80708F047C08C2F869586959F
:1019200020E2829FC0011124C37021E030E002C098
:10193000220F331FCA95E2F7E901C82BD92BDD68C6
:10194000D4CF8C2F86958695877020E2829FC00128
:101950001124C37021E030E002C0220F331FCA956A
:10196000E2F7E901C82BD92BDC68BFCFC03C82E588
:10197000D80750F48C2F8F71C03AD24580F5982F3C
:1019800084EF906AEC01B1CFCE01805C92458097E4
:1019900008F07ACFDC2FDF71C0EFD06AA6CFA49712
:1019A000D064A3CFD065A1CF8C2F8F71D82FC1EF7A
:1019B000D06A9BCF8C2F86958695877020E2829F78
:1019C000C0011124C37021E030E002C0220F331F98
:1019D000CA95E2F7E901C82BD92BDA6886CFD7D0B0
:1019E000982F80E09F71EC01D0627FCF8C2F8F7198
:1019F000CED053E0CC0FDD1F5A95E1F7DF70282FD2
:101A000084FF04C090E1899F90011124C22FD06906
:101A10006CCF8D2F8F71BBD0082F8C2F90E014D0FE
:101A2000302F3F71282F392B3062E9015ECF462FCE
:101A3000753028F4623118F4672F0C947F0180E030
:101A400090E00895F4DFFECE803E9105D1F1C8F418
:101A50008133910509F481C048F48932910509F474
:101A600071C08A32910509F47FC0089589339105C8
:101A7000E1F082389105C9F08533910509F45DC024
:101A80000895843E9105D1F148F4823E910531F1EB
:101A9000833E910541F181EE90E00895863E9105E7
:101AA000C1F1873E9105F1F108952091B1022370B3
:101AB00009F064C02091B20223FF14C089E290E0D3
:101AC00008952091B10220FD45C03091B20230FF4F
:101AD00009C024FD24C083EE90E008952091B10256
:101AE00022FDF7CF08952091B10222FD44C030912C
:101AF000B20230FD43C024FFF5CF11C02091B202E5
:101B000021FFF0CF8091B10284FD09C087EE90E003
:101B100008952091B10223FFE5CF24FFF7CF80E0A5
:101B200090E008952091B10223FD2BC03091B202C4
:101B300031FFE1CF84EE90E008952091B10225FFBE
:101B4000D1CFBCCF2091B10225FD1EC02091B202A1
:101B500023FFC8CF89E390E008952091B10226FFCA
:101B6000C1CF8AE290E008952091B10226FFBACF5A
:101B700081E390E0089582EE90E0089580EE90E099
:101B8000089586EE90E0089585E390E008959091A1
:101B9000B10292FF10C041E0282F2471243009F0D7
:101BA00040E031E0282F2871283009F030E0431759
:101BB00011F02CE0822793FF10C041E0282F247100
:101BC000243109F040E031E0282F2871283109F054
:101BD00030E0431711F02CE082273091B20230FF41
:101BE00010C051E0282F2171213009F050E041E070
:101BF000282F2871283009F040E0541711F029E00F
:101C0000822731FF10C041E0282F2171213109F0D6
:101C100040E031E0282F2871283109F030E04317E7
:101C200011F029E0822794FF02C083FD877E08958A
:101C300080E00895CF939C01205E3245C1E02032C0
:101C4000310538F4FB01C581C11103C08F710E94B9
:101C50002C028C2FCF9108959C01FB018581811569
:101C600099F02B359CE7390769F02C359CE739074B
:101C700021F02A353C4721F00895A0DC80E008954A
:101C8000A4DCFCCFA4DCFACF81E008959C01FB0129
:101C90008581811599F021309CE7390761F0233067
:101CA0009CE7390739F021153C4749F40E9454025A
:101CB00080E00895B7DC0E945802FACF81E00895D1
:101CC000089580E090E00E94461B9C0181E0233E45
:101CD0003E4F09F080E0089563EE7EEF80E090E0F3
:101CE0000C94651B6FEF7FEF80E090E00C94651B18
:101CF000CF93DF93EC0182E090E00E943E1B88834B
:101D0000DF91CF910895FC01608182E090E00C9416
:101D10004B1B83E090E00E943E1B90E00895682FEB
:101D200083E090E00C944B1BCF93DF93EC0184E0B5
:101D300090E00E94461B88839983DF91CF9108959C
:101D4000FC016081718184E090E00C94651BAB0123
:101D5000BC018FE090E00C945D1BAB01BC0183E102
:101D600090E00C945D1B682F8EE090E00C944B1B70
:101D70000895FECF08950895FECF089594E0899FB9
:101D8000F0011124E953FD4F6081718182819381BB
:101D90000895089580EA8A95F1F7089500C008959E
:101DA000F9CF0895F894E82FE295EF70F0E041A1A3
:101DB0008F7021E001C0220F8A95EAF7922F90954B
:101DC000942391A392A1822F892B82A378940895C2
:101DD000CF93DF93C0E9D1E089918F3F09F0E2DF33
:101DE00081E0C539D807C1F7CEE7D1E089918F3FAF
:101DF00009F0D8DF81E0C039D807C1F7DF91CF9172
:101E000008954F925F927F928F929F92AF92BF926E
:101E1000CF92DF92EF92FF920F931F93CF93DF93B6
:101E20002C01762EC62FD0E08E0100571E4FF801F0
:101E300020812F3F09F45AC0F894E22FE295EF7009
:101E4000F0E031A12F7081E001C0880F2A95EAF7F8
:101E5000932F982B91A392A18095892382A37894A4
:101E60009DDFEEE7F1E0A12CB12C450183946501E3
:101E7000750181918F3F89F0A82FA295AF70A05E68
:101E8000B0E02C9130E08F7002C0359527958A958F
:101E9000E2F7A401B50120FF03C040E050E0BA0121
:101EA000C42AD52AE62AF72A880C991CAA1CBB1C2E
:101EB00081E0E039F807E9F6F80180818F3F09F009
:101EC00071DF61E0C114D104E104F10409F460E0C0
:101ED000872D66DFCC0FDD1FCC0FDD1FC2018C0FFD
:101EE0009D1FEC01C882D982EA82FB82DF91CF91EB
:101EF0001F910F91FF90EF90DF90CF90BF90AF9028
:101F00009F908F907F905F904F90089561DFE7ECF6
:101F1000F2E084E111928A95E9F7E3EBF2E084E1E3
:101F200011928A95E9F73CD024CFA4E1B0E0EBE927
:101F3000FFE00C94071BFE013196DF0184E11D9246
:101F40008A95E9F710E00E2FFF2E612F802F9F2D2D
:101F500058DF812F8F5F182F8530B9F744E150E0AB
:101F6000602F7F2D83EB92E00E94311B41E0892B93
:101F700069F440E067EC72E083EB92E012D0182F36
:101F8000FBDE812F6496E5E00C94231B84E1E02FB7
:101F9000FF2DA3EBB2E001900D928A95E1F7EACF15
:101FA0000895EF92FF920F931F93CF93DF938C01CD
:101FB0007B01C42F411571F081E08093750293D4A9
:101FC000809373029093740280E0CDB7DEB7E6E0B1
:101FD0000C94221BD0917502D115B1F3809173023C
:101FE0009091740211D4059778F344E150E0B80160
:101FF000C7010E94311B892B41F084E1F801D70110
:1020000001900D928A95E1F7CD2F109275028C2FD9
:10201000DCCF85CB089501D4E0D557DBF6D577DB4F
:10202000FDD5FFD5F6DF13D65EDBFBCF809396019F
:10203000909397010895CF93DF93EB0186319C47EE
:10204000F9F4C9D99D81911591F08A7A91E08111B5
:1020500001C090E090937602811539F085E3C3D2F8
:1020600064DA80E0DF91CF91089589E2F8CF809122
:102070007602811519F085E3CDD2F2CF89E2FCCF4B
:1020800081E0F0CFCF93DF93EC01FB0185818115D7
:1020900009F4C8C09E0130572332310508F0A8C0AA
:1020A00081EB92E0C9DAFE01E150F047E232F1053E
:1020B00020F4E558F44E0C94F41A8091B10281603A
:1020C0008093B1028FC08091B20288608093B20287
:1020D00089C08091B1028260F3CF8091B1028460A7
:1020E000EFCF8091B1028860EBCF8091B202816026
:1020F000EDCF8091B2028260E9CF8091B102806120
:10210000DFCF8091B1028062DBCF8091B102806429
:10211000D7CF0E94C8058091B1028068D1CF80914D
:10212000B1028C60CDCF8091B2028360CFCF80911D
:10213000B1028E7FC5CF8091B202877FC7CF8091D9
:10214000B1028D7FBDCF8091B1028B7FB9CF8091DD
:10215000B102877FB5CF8091B2028E7FB7CF8091D9
:10216000B2028D7FB3CF8091B1028F7EA9CF8091D3
:10217000B1028F7DA5CF8091B1028F7BA1CF0E944C
:10218000C8058091B1028F779BCF8091B102837F88
:1021900097CF8091B2028C7F99CF9091B102892F15
:1021A0008B7F92FF8460877F92FF886089CF8091C8
:1021B000B202982F909590FB80F990FB81F986CF21
:1021C0009091B102892F8F7B96FF806479CF0E9416
:1021D000C8059091B102892F97FB87F9805870CF7D
:1021E00081E02EDA81EB92E029DA0E94C80580E0D6
:1021F000DF91CF91089580E0F4CF9091B102892FC3
:102200008F7E94FF80615CCF9091B102892F8E7F89
:1022100090FF816055CF9091B202892F877F93FF05
:10222000886054CF81E0E4CF0F931F93CF93DF9367
:10223000C42FD22FFC0185818115C9F0409379020A
:1022400052D380937702909378028C2F805E8830EF
:1022500048F481E0C1FD84E0C0FD880FC2FD829595
:102260000E94B003DF91CF911F910F9108951091BB
:102270007902141333C08091770290917802C4D20E
:10228000883C910558F5CD2FC05E1D17C1F0812FF8
:10229000805E883048F481E011FD84E010FD880FF5
:1022A00012FD82950E94B503C83048F481E0D1FD4B
:1022B00084E0D0FD880FD2FD82950E94B003802F6C
:1022C0000E94A90381E0D1FD84E0D0FD880FD2FDFA
:1022D0008295C83038F60E94B503C4CF8C2F805E3B
:1022E000883008F0BFCF81E0C1FD84E0C0FD880FD9
:1022F000C2FD8295F0CF0F93FC01CB01E851FC4762
:10230000E730F10588F5E356F44E0C94F41A06E232
:1023100021EE41EE6AE17CE787DF80E00F910895CE
:1023200007E225EE45EE6BE17CE7F6CF06E221EE13
:1023300040EE68E17CE7F0CF07E225EE44EE69E18C
:102340007CE7EACF06E221EE42EE6CE17CE7E4CFE7
:1023500007E225EE46EE6DE17CE7DECF08E221E004
:1023600045EE6EE17CE7D8CFFB01858181111092AB
:10237000790281E0D3CF80937E0290937F0208950B
:1023800008950895B0D1982F81E0913009F080E050
:102390000895E0917E02F0917F02309739F001902C
:1023A000F081E02D309711F00995089580E00895AF
:1023B000F0CF0895E0917E02F0917F02309731F0E6
:1023C0000280F381E02D309709F009950895E0919E
:1023D0007E02F0917F02309759F024813581232BC2
:1023E00039F026E0DC012C930480F581E02D09957D
:1023F0000895A3E0B0E0EFEFF1E10C940A1B209107
:102400007C0230917D0228173907B1F080937C025D
:1024100090937D02E0917E02F0917F02309761F00F
:102420000084F185E02D309739F023E029838A83F9
:102430009B83CE01019609952396E2E00C94261B1E
:10244000A3E0B0E0E6E2F2E10C940A1B20917A02EC
:1024500030917B0228173907B1F080937A0290936C
:102460007B02E0917E02F0917F02309761F0008460
:10247000F185E02D309739F024E029838A839B830E
:10248000CE01019609952396E2E00C94261BCF938A
:10249000DF93C0910201D091030174DF811521F017
:1024A0008091B10287FD11C09E012E5F3F4F96E0E3
:1024B00080E09150F90140812F5F3F4F41118F5FC4
:1024C0009111F7CFDF91CF910895209100013091C4
:1024D00001012E5F3F4F9EE1EBCFCF93C82F8111BB
:1024E00002C080E02EC04EDF811521F08091B10244
:1024F00087FD0FC08091020190910301FC0132968B
:10250000089620812C17F9F03196E817F907C9F7DA
:10251000E8CF8C2F869586958695C03F10F7E09181
:102520000001F0910101E80FF11D228130E0C77038
:1025300081E001C0880FCA95EAF7282381E0232BA8
:1025400081F2CF91089581E0FCCF9C01FC0132968D
:1025500080E09FEF4081461759F031969F3F19F474
:10256000411101C0982F8F5F8630A1F79F3F09F47A
:102570000895290F311D97FD3A95F9016283089559
:10258000FC01329608962191261302C0DF011E92AB
:10259000E817F907C1F70895262F26952695269561
:1025A000603F60F4820F911DFC01677021E001C063
:1025B000220F6A95EAF78281822B82830895262F63
:1025C000269526952695603F68F4820F911DFC01A3
:1025D0009DEF61FD97EF60FF959562FD9295828179
:1025E000892382830895CF93C82FCCDE6C2F811569
:1025F00059F08091B10287FF07C08091000190914E
:102600000101CADFCF9108958091020190910301E9
:102610009CDFF8CFCF93C82FB5DE6C2F811559F012
:102620008091B10287FF07C0809100019091010164
:10263000C6DFCF9108958091020190910301A0DF40
:10264000F8CFA0DE811571F08091B10287FF0AC03A
:10265000E0910001F091010132968EE111928A958C
:10266000E9F70895E0910201F0910301329686E0C6
:10267000F5CF0895FECF08958F5F80930701609195
:102680000401709105018091060190910701F2CF3C
:1026900083E08093070160910401709105018091AE
:1026A000060190910701E6CFE7CF089581E080937E
:1026B00007016091040170910501809106019091DC
:1026C0000701D8CFF3CF089591E0811101C090E0C8
:1026D00090930601609104017091050180910601BB
:1026E00090910701C7CF809106010895809305015D
:1026F000609104017091050180910601909107019C
:10270000B9CF80910501089580930401609104017F
:10271000709105018091060190910701ABCF8091E6
:102720000401089508950895FECF08950895089529
:10273000F9CF08950F931F93CF93DF93F7DFF5DB66
:10274000F6DF00E812E0C0E0D0E08C2F17DBAB0131
:10275000BC01F80141935193819371938F0181E002
:10276000452B462B472B09F480E0D82BCF5FC53093
:1027700061F78D2FDF91CF911F910F910895962FC3
:1027800024E0829FF0011124E058FD4F41E050E029
:1027900060E070E004C0440F551F661F771F9A95D4
:1027A000D2F780819181A281B381482359236A2382
:1027B0007B2381E0452B462B472B09F480E00895CD
:1027C000411121C094E0899FF0011124E058FD4F90
:1027D00081E090E0A0E0B0E004C0880F991FAA1F3C
:1027E000BB1F6A95D2F780959095A095B0954081D2
:1027F00051816281738184239523A623B72380832B
:102800009183A283B3830895CF93DF93EC016BD0C0
:102810008C1B9D0BDF91CF91089585B7806885BF94
:1028200085B7806885BF08951F921FB61F92112437
:102830008F939F93AF93BF9380919402811113C0A4
:102840008091DB029091DC02A091DD02B091DE026A
:102850004196A11DB11D8093DB029093DC02A093F1
:10286000DD02B093DE02BF91AF919F918F911F90D7
:102870001FBE1F9018958091E302843031F10E94B1
:102880005C021092940288E190E020E40FB6F89484
:10289000A895809360000FBE2093600083B7817F6E
:1028A000846083BF83B7816083BF7894889583B742
:1028B0008E7F83BF0FB6F894A895809160008861E1
:1028C00080936000109260000FBE08950E94C805BA
:1028D0000C94600282E084BD93E095BD9AEF97BDB1
:1028E00080936E0008952FB7F8948091DB02909149
:1028F000DC02A091DD02B091DE022FBF08952FB758
:10290000F8946091DB027091DC028091DD0290917D
:10291000DE022FBF089578941F921FB61F921124D4
:102920008F939F93AF93BF938091DB029091DC02D2
:10293000A091DD02B091DE020196A11DB11D809330
:10294000DB029093DC02A093DD02B093DE02BF9124
:10295000AF919F918F911F901FBE1F90189587E791
:1029600097E7809300089093010888E19AE00FB6FA
:10297000F894A895809360000FBE90936000FFCFFD
:1029800088E19AE00FB6F894A895809360000FBE96
:1029900090936000FFCF08959B01BA019091E302EC
:1029A0009430D9F48F708093E9009FEF8091E80014
:1029B00085FD06C085ED8A95F1F700009150B1F7CD
:1029C0008091E80085FF09C040E050E0C901B1D125
:1029D0008091E8008E778093E800089543E050E00E
:1029E000BC0182E0D9CF40E250E0BC0182E0D4CF0C
:1029F000CF93DF93EC0177DE48E050E0BE0181E049
:102A0000CBDF88E0FE01A5E9B2E001900D928A9546
:102A1000E1F7DF91CF9108958091E202811107C023
:102A200016D366D38091E20084608093E20008951B
:102A30001092E20208953ADE81E046CE6091DF0214
:102A400081E0611101C080E023CE9091E30281E03A
:102A5000943009F080E06091DF0226CE42E061EC24
:102A600081E071D242E261EC82E06DD29091E302AA
:102A700081E0943009F080E06091DF02FDCD80912B
:102A8000E502893081F148F4823009F496C0833040
:102A900009F457C0813041F008958A3009F480C0AC
:102AA0008B3009F468C008958091E402813A09F0FE
:102AB00047C08091E800877F8093E8008091E8021A
:102AC0009091E902892B59F060E080E090E070E09D
:102AD0007DD18091E8008B778093E800089568E0CD
:102AE00085E992E0F4CF8091E402813249F580914A
:102AF000E8029091E902029718F58091E800877F3B
:102B00008093E8008091E80082FF16C02091F300D6
:102B10008091F200922F029731F48091F100813080
:102B200011F0863019F48091F100E0DD8091E80029
:102B30008B778093E8003BC28091E3028111E2CF62
:102B400008958091E402813AD9F78091E80290914A
:102B5000E902892BA9F78091E800877F8093E8003C
:102B60008091E80080FFFCCFBEDD8093F100809172
:102B7000E8008E77DECF8091E402813209F7809100
:102B8000E8029091E902892BD9F68091E800877FCD
:102B90008093E8000CD28091E60296DD0C94C80583
:102BA0008091E402813261F68091E800877F809312
:102BB000E800FDD18091E702A7CD8091E402813A3F
:102BC00009F0BECF8091E800877F8093E800809174
:102BD000E80080FFFCCFA3DDC8CF84B7877F84BF28
:102BE0000FB6F894A895809160008861809360008A
:102BF000109260000FBE80E890E00FB6F8948093CA
:102C00006100909361000FBE5DCD21D271D2E2EEE2
:102C1000F0E08081846080837894CDC488E091E086
:102C2000AACB8091E302853029F48091E3028530BC
:102C300011F04CCE08951FDE7DDD8115B1F380913A
:102C4000E102811591F35FD00E94C805EECF08958F
:102C50009A014091EA025091EB0200C0492F50E0E6
:102C600043305105C9F070F441305105E9F142306B
:102C7000510571F48BE390E042E951E0F9014083A2
:102C80005183089541325105E9F04232510519F15D
:102C900080E090E040E0F2CF482F50E0813061F0DA
:102CA0004230510561F0EEE8F1E04115510581F740
:102CB000849190E0AF01E2CFEAE7F1E0F9CFE0E6FE
:102CC000F1E0F6CF61307105A0F011F789E090E0F6
:102CD0004DEB51E0D3CF6130710580F0C9F68DE640
:102CE00090E04FED51E0CACF82E190E04DEC51E031
:102CF000C5CF89E090E044EA51E0C0CF84E490E0A1
:102D00004CE452E0BBCF80E189BD82E189BD09B4CA
:102D100000FEFDCF8091D8008F7D8093D8008091F8
:102D2000E00082608093E0008091E00081FDFCCFB4
:102D30000895AF92BF92CF92DF92FF920F931F93AD
:102D4000CF93DF936C01EB018A0150D1F82E8111F2
:102D500023C00115110539F0F80180819181C81B4C
:102D6000D90BC80ED91EA12CB12C2097A9F08091A7
:102D7000E80085FD21C08091E8008E778093E8000F
:102D800001151105A1F0F801808191818A0D9B1D2B
:102D90008083918385E0F82E8F2DDF91CF911F9155
:102DA0000F91FF90DF90CF90BF90AF9008951ED10C
:102DB0008115E9F2F82EF0CFF60181916F01809331
:102DC000F10021978FEFA81AB80ACFCFFC0120910C
:102DD000EA023091EB022617370720F061157105E2
:102DE00069F09B0190E02115310571F491110CC03F
:102DF0008091E80082FF38C080E008959091E8005B
:102E00009E779093E800EDCF8091E3028115C1F1A8
:102E10008530C1F18091E80083FD30C08091E800E9
:102E200082FDE6CF8091E80080FFDDCF8091F30046
:102E30004091F200582F2115310519F04830510505
:102E400058F091E04830510509F090E04091E800D9
:102E50004E774093E800C7CF81918093F1002150D5
:102E600031094F5F5F4FE7CF8091E302811541F059
:102E7000853041F08091E80083FFBACF81E008956A
:102E800082E0089583E00895FC012091EA023091E8
:102E9000EB022617370720F06115710569F09B01D9
:102EA00090E02115310571F491110CC08091E8007A
:102EB00082FF39C080E008958091E8008E7780938A
:102EC000E800EDCF8091E3028115C9F18530C9F1A9
:102ED0008091E80083FD31C08091E80082FDE6CF5B
:102EE0008091E80080FFDDCF8091F3004091F200F7
:102EF000582F2115310519F04830510558F091E04F
:102F00004830510509F090E08091E8008E77809379
:102F1000E800C7CF84918093F100319621503109A8
:102F20004F5F5F4FE6CF8091E302811541F085301E
:102F300041F08091E80083FFB9CF81E0089582E0FD
:102F4000089583E00895982F973028F08F7080932C
:102F5000E90081E008959093E900242F762F50E056
:102F6000981731F07091EC002091ED005091F00035
:102F700021FD02C09F5FE8CF3091EB003E7F309390
:102F8000EB003091ED003D7F3093ED003091EB0090
:102F900031603093EB007093EC002093ED00509380
:102FA000F0002091EE0027FDE5CF80E008958091AC
:102FB000E40287FF13C08091E80082FF06C0809181
:102FC000E8008B778093E80008958091E3028111F7
:102FD000F2CF08958091E3028115D9F38091E80042
:102FE00080FFF8CF8091E8008E77ECCF2091E4004D
:102FF0003091E50095E6A9012091EC00822F8170C7
:1030000020FF06C08091E80080FF06C080E00895A0
:103010002091E80022FD1AC08091E302811589F019
:10302000853089F08091EB0085FD0FC02091E40090
:103030003091E50042175307F9F29150E1F684E030
:10304000089582E0089583E0089581E008955FD0B7
:1030500066D0E0EEF0E0808181608083E8ED8081E1
:103060008F77808319BCA7EDB0E08C918E7F8C9315
:1030700080818F7E80831092E2020895CF93DF9348
:1030800046D04DD0C8EDD0E088818F778883888185
:103090008068888388818F7D888319BC1092E302C1
:1030A0001092DF021092E1021092E002E0EEF0E0F6
:1030B00080818B7F808388818160888342E060E0AB
:1030C00080E041DFE1EEF0E080818E7F8083E2EE00
:1030D000808181608083808188608083E0EE808150
:1030E0008E7F8083888180618883DF91CF9108956E
:1030F000E8EDF0E080818F7E8083E7ED8081816064
:10310000808384E082BF81E08093E202B7CFE8ED64
:10311000F0E080818E7F80831092E200089510920B
:10312000DA001092E10008951F920F920FB60F92ED
:1031300011242F933F934F935F936F937F938F93BC
:103140009F93AF93BF93EF93FF938091E10082FF32
:103150000AC08091E20082FF06C08091E1008B7F6F
:103160008093E10027D28091DA0080FF18C080911F
:10317000D80080FF14C08091DA008E7F8093DA003F
:103180008091D90080FF8FC080E189BD82E189BD37
:1031900009B400FEFDCF81E08093E3023DDC809125
:1031A000E10080FF18C08091E20080FF14C0809190
:1031B000E2008E7F8093E2008091E2008061809344
:1031C000E2008091D80080628093D80019BC85E02D
:1031D0008093E30233DC8091E10084FF28C080917A
:1031E000E20084FF24C080E189BD82E189BD09B489
:1031F00000FEFDCF8091D8008F7D8093D800809114
:10320000E1008F7E8093E1008091E2008F7E8093C9
:10321000E2008091E20081608093E2008091DF0211
:10322000811509F445C084E08093E3020EDC8091AF
:10323000E10083FF27C08091E20083FF23C08091DB
:10324000E100877F8093E10082E08093E3021092A7
:10325000DF028091E1008E7F8093E1008091E200A7
:103260008E7F8093E2008091E20080618093E20093
:1032700042E060E080E067DE8091F000886080934B
:10328000F000D9DBFF91EF91BF91AF919F918F91AA
:103290007F916F915F914F913F912F910F900FBE52
:1032A0000F901F90189519BC1092E302C1DB77CFE5
:1032B0008091E30087FF02C083E0B6CF81E0B4CF06
:1032C0001F920F920FB60F9211241F932F933F93CB
:1032D0004F935F936F937F938F939F93AF93BF931E
:1032E000CF93DF93EF93FF93E9EEF0E080811091AD
:1032F000EC008F7010FB112717F9182B1082C0EF0C
:10330000D0E08881877F888378941CD0E9EEF0E054
:1033100010828881886088831F701083FF91EF91ED
:10332000DF91CF91BF91AF919F918F917F916F91DD
:103330005F914F913F912F911F910F900FBE0F9072
:103340001F901895AAE2B0E0E7EAF9E162C184EEC5
:1033500092E0FC0101962091F100208322E08C3E56
:103360009207B9F78CDB8091E80083FF37C080912A
:10337000E4029091E5029A3088F5E92FF0E0EC55EF
:10338000F44E32C1803889F0823841F58091E802EC
:103390008F70873018F58093E9008091EB0085FBF2
:1033A000882780F91092E90006C08091E102880F19
:1033B0009091E002892B9091E800977F9093E8002C
:1033C0008093F1001092F1008091E8008E7722C086
:1033D000811115C08091E602813001F18091E800F1
:1033E00083FF0AC08091E800877F8093E800809186
:1033F000EB0080628093EB00AA96E3E026C1823066
:1034000069F78091E602811579F01092E9008091C8
:10341000E800877F8093E800CADDE0CF933009F0B1
:1034200080E08093E102F1CF8091E8028F70282F35
:103430002150263098F68093E9002091EB0020FF80
:10344000E4CF933031F48091EB0080628093EB0005
:10345000DCCF9091EB0090619093EB0021E001C0F4
:10346000220F8A95EAF72093EA001092EA008091F1
:10347000EB008860EBCF8111B1CF8091E6028F77AE
:10348000182F8091E3008078812B8093E300809156
:10349000E800877F8093E8008ADD8091E80080FF64
:1034A000FCCF8091E30080688093E30083E01111FA
:1034B00001C082E08093E30291CF8058823008F00F
:1034C0008DCF8091E6029091E7028C3D23E0920738
:1034D00089F583E08A838AE289834FB7F894DE0115
:1034E000139620E03EE051E2E32FF0E050935700C6
:1034F000849120FF03C082958F703F5F8F708A3068
:10350000B8F0895C8D931D922F5F243169F74FBF0E
:103510008091E800877F8093E8006AE270E0CE0146
:10352000019654DC8091E8008B778093E80056CFB9
:10353000805DE8CF6091E8027091E902AE014F5FD3
:103540005F4F86DBBC01892B09F448CF9091E800DE
:10355000977F9093E80089819A8196DCE3CF803849
:1035600009F03CCF8091E800877F8093E80080914C
:10357000DF028093F10028CF811130CF9091E602D5
:10358000923008F02BCF8091E800877F8093E8008D
:103590009093DF020CDD8091DF02811529F084E039
:1035A0008093E3025BDA1ACF8091E30087FDF7CFC7
:1035B00081E0F6CF0895CF938091E302811591F0D9
:1035C0008091E900C091EC008F70C0FBCC27C7F957
:1035D000C82B1092E9008091E80083FDB3DECF7024
:1035E000C093E900CF910895EE0FFF1F0590F4916D
:1035F000E02D09942F923F924F925F926F927F92AB
:103600008F929F92AF92BF92CF92DF92EF92FF92F2
:103610000F931F93CF93DF93CDB7DEB7CA1BDB0B9E
:103620000FB6F894DEBF0FBECDBF09942A88398843
:1036300048885F846E847D848C849B84AA84B9844A
:10364000C884DF80EE80FD800C811B81AA81B98156
:10365000CE0FD11D0FB6F894DEBF0FBECDBFED016A
:103660000895FB01DC0104C08D910190801921F4C3
:1036700041505040C8F7881B990B0895F999FECF27
:1036800092BD81BDF89A992780B50895A8E1B0E070
:1036900042E050E020C0262FF999FECF92BD81BDB7
:1036A000F89A019700B4021639F01FBA20BD0FB680
:1036B000F894FA9AF99A0FBE08950396272FECDF33
:1036C000EADF252FE9DF242FE7CF0196272FE4DF5C
:1036D000E2CFDC01CB01FC01F999FECF06C0F2BDBF
:1036E000E1BDF89A319600B40D9241505040B8F7C0
:1036F0000895F894FFCF971004119F1069106D1072
:10370000A3107110A710B3107D10FD108110B71019
:103710008510BB10E0108910BF10E7108F10C51086
:10372000CD107510AB107910AF109310C910D710D1
:10373000F010FB1063109B100B1196119C11871158
:103740009011A211A811AE11C219E819EE19E819C9
:0C375000EE193B1A5D1AEE19AF1ABC1AF4
:10375C003E025E02000001008113F814F314CB1436
:10376C00EE14E200E900EA00B500B600B700CD00A7
:10377C008301CC008A0192019401210223022402CC
:10378C002502260227022A02B300B4006F00700043
:10379C009F01CB019F02A002E200E900EA00B50004
:1037AC00B600B700CD008301CC008A0192019401D0
:1037BC002102230224022502260227022A02B30038
:1037CC00B4006F0070009F01CB019F02A00290918A
:1037DC009293956766363534979694F73031323339
:0637EC00F0F1F4F5F60017
:00000001FF
